{
  "address": "0x57B59339B9382ccc14EF6122b2937549FD826A31",
  "abi": [
    {
      "inputs": [
        {
          "internalType": "address",
          "name": "vrfCoordinatorV2",
          "type": "address"
        },
        {
          "internalType": "uint256",
          "name": "entranceFee",
          "type": "uint256"
        },
        {
          "internalType": "bytes32",
          "name": "gasLane",
          "type": "bytes32"
        },
        {
          "internalType": "uint64",
          "name": "subscriptionId",
          "type": "uint64"
        },
        {
          "internalType": "uint32",
          "name": "callbackGasLimit",
          "type": "uint32"
        },
        {
          "internalType": "uint256",
          "name": "interval",
          "type": "uint256"
        }
      ],
      "stateMutability": "nonpayable",
      "type": "constructor"
    },
    {
      "inputs": [
        {
          "internalType": "address",
          "name": "have",
          "type": "address"
        },
        {
          "internalType": "address",
          "name": "want",
          "type": "address"
        }
      ],
      "name": "OnlyCoordinatorCanFulfill",
      "type": "error"
    },
    {
      "inputs": [],
      "name": "Raffle__NotEnoughETHEntered",
      "type": "error"
    },
    {
      "inputs": [],
      "name": "Raffle__NotOpen",
      "type": "error"
    },
    {
      "inputs": [],
      "name": "Raffle__TransferFailed",
      "type": "error"
    },
    {
      "inputs": [
        {
          "internalType": "uint256",
          "name": "currentBalance",
          "type": "uint256"
        },
        {
          "internalType": "uint256",
          "name": "numPlayers",
          "type": "uint256"
        },
        {
          "internalType": "uint256",
          "name": "raffleState",
          "type": "uint256"
        }
      ],
      "name": "Raffle__UpkeepNotNeeded",
      "type": "error"
    },
    {
      "anonymous": false,
      "inputs": [
        {
          "indexed": true,
          "internalType": "address",
          "name": "player",
          "type": "address"
        }
      ],
      "name": "RaffleEnter",
      "type": "event"
    },
    {
      "anonymous": false,
      "inputs": [
        {
          "indexed": true,
          "internalType": "uint256",
          "name": "requestId",
          "type": "uint256"
        }
      ],
      "name": "RequestedRaffleWinner",
      "type": "event"
    },
    {
      "anonymous": false,
      "inputs": [
        {
          "indexed": true,
          "internalType": "address",
          "name": "winner",
          "type": "address"
        }
      ],
      "name": "WinnerPicked",
      "type": "event"
    },
    {
      "inputs": [
        {
          "internalType": "bytes",
          "name": "",
          "type": "bytes"
        }
      ],
      "name": "checkUpkeep",
      "outputs": [
        {
          "internalType": "bool",
          "name": "upkeepNeeded",
          "type": "bool"
        },
        {
          "internalType": "bytes",
          "name": "",
          "type": "bytes"
        }
      ],
      "stateMutability": "nonpayable",
      "type": "function"
    },
    {
      "inputs": [],
      "name": "enterRaffle",
      "outputs": [],
      "stateMutability": "payable",
      "type": "function"
    },
    {
      "inputs": [],
      "name": "getEntranceFee",
      "outputs": [
        {
          "internalType": "uint256",
          "name": "",
          "type": "uint256"
        }
      ],
      "stateMutability": "view",
      "type": "function"
    },
    {
      "inputs": [],
      "name": "getInterval",
      "outputs": [
        {
          "internalType": "uint256",
          "name": "",
          "type": "uint256"
        }
      ],
      "stateMutability": "view",
      "type": "function"
    },
    {
      "inputs": [],
      "name": "getLatestTimestamp",
      "outputs": [
        {
          "internalType": "uint256",
          "name": "",
          "type": "uint256"
        }
      ],
      "stateMutability": "view",
      "type": "function"
    },
    {
      "inputs": [],
      "name": "getNumWords",
      "outputs": [
        {
          "internalType": "uint256",
          "name": "",
          "type": "uint256"
        }
      ],
      "stateMutability": "pure",
      "type": "function"
    },
    {
      "inputs": [],
      "name": "getNumberOfPlayers",
      "outputs": [
        {
          "internalType": "uint256",
          "name": "",
          "type": "uint256"
        }
      ],
      "stateMutability": "view",
      "type": "function"
    },
    {
      "inputs": [
        {
          "internalType": "uint256",
          "name": "index",
          "type": "uint256"
        }
      ],
      "name": "getPlayer",
      "outputs": [
        {
          "internalType": "address",
          "name": "",
          "type": "address"
        }
      ],
      "stateMutability": "view",
      "type": "function"
    },
    {
      "inputs": [],
      "name": "getRaffleState",
      "outputs": [
        {
          "internalType": "enum Raffle.RaffleState",
          "name": "",
          "type": "uint8"
        }
      ],
      "stateMutability": "view",
      "type": "function"
    },
    {
      "inputs": [],
      "name": "getRecentWinner",
      "outputs": [
        {
          "internalType": "address",
          "name": "",
          "type": "address"
        }
      ],
      "stateMutability": "view",
      "type": "function"
    },
    {
      "inputs": [],
      "name": "getRequestConfirmations",
      "outputs": [
        {
          "internalType": "uint256",
          "name": "",
          "type": "uint256"
        }
      ],
      "stateMutability": "pure",
      "type": "function"
    },
    {
      "inputs": [
        {
          "internalType": "bytes",
          "name": "",
          "type": "bytes"
        }
      ],
      "name": "performUpkeep",
      "outputs": [],
      "stateMutability": "nonpayable",
      "type": "function"
    },
    {
      "inputs": [
        {
          "internalType": "uint256",
          "name": "requestId",
          "type": "uint256"
        },
        {
          "internalType": "uint256[]",
          "name": "randomWords",
          "type": "uint256[]"
        }
      ],
      "name": "rawFulfillRandomWords",
      "outputs": [],
      "stateMutability": "nonpayable",
      "type": "function"
    }
  ],
  "transactionHash": "0x13c9ea8f0cd2328fdb8f00ada60f842ee317096153f3f596cb0bdf030dc8659a",
  "args": [
    "0x8103B0A8A00be2DDC778e6e7eaa21791Cd364625",
    "3635",
    "0x474e34a077df58807dbe9c96d3c009b23b3c6d0cce433e59bbf5b34f823bc56c",
    "30",
    "10000",
    "500000"
  ],
  "numDeployments": 2,
  "solcInputHash": "0c3cb356d503d05cea8c7e3ffb9466e9",
  "bytecode": "0x6101606040523480156200001257600080fd5b506040516200183a3803806200183a8339818101604052810190620000389190620001ad565b858073ffffffffffffffffffffffffffffffffffffffff1660808173ffffffffffffffffffffffffffffffffffffffff1660601b81525050508460a081815250508573ffffffffffffffffffffffffffffffffffffffff1660c08173ffffffffffffffffffffffffffffffffffffffff1660601b815250508360e081815250508267ffffffffffffffff166101008167ffffffffffffffff1660c01b815250508163ffffffff166101208163ffffffff1660e01b815250506000600260146101000a81548160ff02191690836001811115620001195762000118620002b5565b5b0217905550426001819055508061014081815250505050505050506200036b565b6000815190506200014b81620002e9565b92915050565b600081519050620001628162000303565b92915050565b60008151905062000179816200031d565b92915050565b600081519050620001908162000337565b92915050565b600081519050620001a78162000351565b92915050565b60008060008060008060c08789031215620001cd57620001cc620002e4565b5b6000620001dd89828a016200013a565b9650506020620001f089828a0162000168565b95505060406200020389828a0162000151565b94505060606200021689828a0162000196565b93505060806200022989828a016200017f565b92505060a06200023c89828a0162000168565b9150509295509295509295565b6000620002568262000267565b9050919050565b6000819050919050565b600073ffffffffffffffffffffffffffffffffffffffff82169050919050565b6000819050919050565b600063ffffffff82169050919050565b600067ffffffffffffffff82169050919050565b7f4e487b7100000000000000000000000000000000000000000000000000000000600052602160045260246000fd5b600080fd5b620002f48162000249565b81146200030057600080fd5b50565b6200030e816200025d565b81146200031a57600080fd5b50565b620003288162000287565b81146200033457600080fd5b50565b620003428162000291565b81146200034e57600080fd5b50565b6200035c81620002a1565b81146200036857600080fd5b50565b60805160601c60a05160c05160601c60e0516101005160c01c6101205160e01c61014051611453620003e7600039600081816107ed015261085b0152600061069c01526000610679015260006106580152600061061c0152600081816102fa01526103f7015260008181610337015261038b01526114536000f3fe6080604052600436106100c25760003560e01c806353a2c19a1161007f57806391ad27b41161005957806391ad27b414610238578063e55ae4e814610263578063f43b52cb146102a0578063fd6673f5146102cb576100c2565b806353a2c19a146101a45780635f1b0fd8146101cf5780636e04ff0d146101fa576100c2565b806309bc33a7146100c7578063115cbaf5146100f25780631fe543e31461011d5780632cfcc539146101465780634585e33b14610150578063473f1ddc14610179575b600080fd5b3480156100d357600080fd5b506100dc6102f6565b6040516100e99190611059565b60405180910390f35b3480156100fe57600080fd5b5061010761031e565b604051610114919061103e565b60405180910390f35b34801561012957600080fd5b50610144600480360381019061013f9190610e32565b610335565b005b61014e6103f5565b005b34801561015c57600080fd5b5061017760048036038101906101729190610d42565b610564565b005b34801561018557600080fd5b5061018e610764565b60405161019b9190610f77565b60405180910390f35b3480156101b057600080fd5b506101b961078e565b6040516101c69190611059565b60405180910390f35b3480156101db57600080fd5b506101e461079d565b6040516101f19190611059565b60405180910390f35b34801561020657600080fd5b50610221600480360381019061021c9190610d8f565b6107aa565b60405161022f929190610fbb565b60405180910390f35b34801561024457600080fd5b5061024d610857565b60405161025a9190611059565b60405180910390f35b34801561026f57600080fd5b5061028a60048036038101906102859190610dd8565b61087f565b6040516102979190610f77565b60405180910390f35b3480156102ac57600080fd5b506102b56108c6565b6040516102c29190611059565b60405180910390f35b3480156102d757600080fd5b506102e06108d0565b6040516102ed9190611059565b60405180910390f35b60007f0000000000000000000000000000000000000000000000000000000000000000905090565b6000600260149054906101000a900460ff16905090565b7f000000000000000000000000000000000000000000000000000000000000000073ffffffffffffffffffffffffffffffffffffffff163373ffffffffffffffffffffffffffffffffffffffff16146103e757337f00000000000000000000000000000000000000000000000000000000000000006040517f1cf993f40000000000000000000000000000000000000000000000000000000081526004016103de929190610f92565b60405180910390fd5b6103f182826108dc565b5050565b7f000000000000000000000000000000000000000000000000000000000000000034101561044f576040517fbd4e069500000000000000000000000000000000000000000000000000000000815260040160405180910390fd5b6000600181111561046357610462611333565b5b600260149054906101000a900460ff16600181111561048557610484611333565b5b146104bc576040517f1425571c00000000000000000000000000000000000000000000000000000000815260040160405180910390fd5b6000339080600181540180825580915050600190039060005260206000200160009091909190916101000a81548173ffffffffffffffffffffffffffffffffffffffff021916908373ffffffffffffffffffffffffffffffffffffffff1602179055503373ffffffffffffffffffffffffffffffffffffffff167f0805e1d667bddb8a95f0f09880cf94f403fb596ce79928d9f29b74203ba284d460405160405180910390a2565b600061057e604051806020016040528060008152506107aa565b509050806105ed5747600080549050600260149054906101000a900460ff1660018111156105af576105ae611333565b5b6040517f584327aa0000000000000000000000000000000000000000000000000000000081526004016105e493929190611074565b60405180910390fd5b6001600260146101000a81548160ff0219169083600181111561061357610612611333565b5b021790555060007f000000000000000000000000000000000000000000000000000000000000000073ffffffffffffffffffffffffffffffffffffffff16635d3b1d307f00000000000000000000000000000000000000000000000000000000000000007f000000000000000000000000000000000000000000000000000000000000000060037f000000000000000000000000000000000000000000000000000000000000000060016040518663ffffffff1660e01b81526004016106dd959493929190610feb565b602060405180830381600087803b1580156106f757600080fd5b505af115801561070b573d6000803e3d6000fd5b505050506040513d601f19601f8201168201806040525081019061072f9190610e05565b9050807fcd6e45c8998311cab7e9d4385596cac867e20a0587194b954fa3a731c93ce78b60405160405180910390a250505050565b6000600260009054906101000a900473ffffffffffffffffffffffffffffffffffffffff16905090565b6000600163ffffffff16905090565b6000600361ffff16905090565b600060606000600260149054906101000a900460ff1660018111156107d2576107d1611333565b5b600060018111156107e6576107e5611333565b5b14905060007f00000000000000000000000000000000000000000000000000000000000000006001544261081a9190611154565b1190506000806000805490501190506000804711905083801561083a5750825b80156108435750815b801561084c5750805b955050505050915091565b60007f0000000000000000000000000000000000000000000000000000000000000000905090565b600080828154811061089457610893611362565b5b9060005260206000200160009054906101000a900473ffffffffffffffffffffffffffffffffffffffff169050919050565b6000600154905090565b60008080549050905090565b60008080549050826000815181106108f7576108f6611362565b5b602002602001015161090991906112a4565b905060008082815481106109205761091f611362565b5b9060005260206000200160009054906101000a900473ffffffffffffffffffffffffffffffffffffffff16905080600260006101000a81548173ffffffffffffffffffffffffffffffffffffffff021916908373ffffffffffffffffffffffffffffffffffffffff1602179055506000600260146101000a81548160ff021916908360018111156109b4576109b3611333565b5b0217905550600067ffffffffffffffff8111156109d4576109d3611391565b5b604051908082528060200260200182016040528015610a025781602001602082028036833780820191505090505b5060009080519060200190610a18929190610b0d565b504260018190555060008173ffffffffffffffffffffffffffffffffffffffff1647604051610a4690610f62565b60006040518083038185875af1925050503d8060008114610a83576040519150601f19603f3d011682016040523d82523d6000602084013e610a88565b606091505b5050905080610ac3576040517fa1d04b3900000000000000000000000000000000000000000000000000000000815260040160405180910390fd5b8173ffffffffffffffffffffffffffffffffffffffff167f5b690ec4a06fe979403046eaeea5b3ce38524683c3001f662c8b5a829632f7df60405160405180910390a25050505050565b828054828255906000526020600020908101928215610b86579160200282015b82811115610b855782518260006101000a81548173ffffffffffffffffffffffffffffffffffffffff021916908373ffffffffffffffffffffffffffffffffffffffff16021790555091602001919060010190610b2d565b5b509050610b939190610b97565b5090565b5b80821115610bb0576000816000905550600101610b98565b5090565b6000610bc7610bc2846110d0565b6110ab565b90508083825260208201905082856020860282011115610bea57610be96113ca565b5b60005b85811015610c1a5781610c008882610d18565b845260208401935060208301925050600181019050610bed565b5050509392505050565b6000610c37610c32846110fc565b6110ab565b905082815260208101848484011115610c5357610c526113cf565b5b610c5e848285611231565b509392505050565b600082601f830112610c7b57610c7a6113c5565b5b8135610c8b848260208601610bb4565b91505092915050565b60008083601f840112610caa57610ca96113c5565b5b8235905067ffffffffffffffff811115610cc757610cc66113c0565b5b602083019150836001820283011115610ce357610ce26113ca565b5b9250929050565b600082601f830112610cff57610cfe6113c5565b5b8135610d0f848260208601610c24565b91505092915050565b600081359050610d2781611406565b92915050565b600081519050610d3c81611406565b92915050565b60008060208385031215610d5957610d586113d9565b5b600083013567ffffffffffffffff811115610d7757610d766113d4565b5b610d8385828601610c94565b92509250509250929050565b600060208284031215610da557610da46113d9565b5b600082013567ffffffffffffffff811115610dc357610dc26113d4565b5b610dcf84828501610cea565b91505092915050565b600060208284031215610dee57610ded6113d9565b5b6000610dfc84828501610d18565b91505092915050565b600060208284031215610e1b57610e1a6113d9565b5b6000610e2984828501610d2d565b91505092915050565b60008060408385031215610e4957610e486113d9565b5b6000610e5785828601610d18565b925050602083013567ffffffffffffffff811115610e7857610e776113d4565b5b610e8485828601610c66565b9150509250929050565b610e9781611188565b82525050565b610ea68161119a565b82525050565b610eb5816111a6565b82525050565b6000610ec68261112d565b610ed08185611138565b9350610ee0818560208601611240565b610ee9816113de565b840191505092915050565b610efd8161121f565b82525050565b6000610f10600083611149565b9150610f1b826113ef565b600082019050919050565b610f2f816111c3565b82525050565b610f3e816111f1565b82525050565b610f4d816111fb565b82525050565b610f5c8161120b565b82525050565b6000610f6d82610f03565b9150819050919050565b6000602082019050610f8c6000830184610e8e565b92915050565b6000604082019050610fa76000830185610e8e565b610fb46020830184610e8e565b9392505050565b6000604082019050610fd06000830185610e9d565b8181036020830152610fe28184610ebb565b90509392505050565b600060a0820190506110006000830188610eac565b61100d6020830187610f53565b61101a6040830186610f26565b6110276060830185610f44565b6110346080830184610f44565b9695505050505050565b60006020820190506110536000830184610ef4565b92915050565b600060208201905061106e6000830184610f35565b92915050565b60006060820190506110896000830186610f35565b6110966020830185610f35565b6110a36040830184610f35565b949350505050565b60006110b56110c6565b90506110c18282611273565b919050565b6000604051905090565b600067ffffffffffffffff8211156110eb576110ea611391565b5b602082029050602081019050919050565b600067ffffffffffffffff82111561111757611116611391565b5b611120826113de565b9050602081019050919050565b600081519050919050565b600082825260208201905092915050565b600081905092915050565b600061115f826111f1565b915061116a836111f1565b92508282101561117d5761117c6112d5565b5b828203905092915050565b6000611193826111d1565b9050919050565b60008115159050919050565b6000819050919050565b60008190506111be826113f2565b919050565b600061ffff82169050919050565b600073ffffffffffffffffffffffffffffffffffffffff82169050919050565b6000819050919050565b600063ffffffff82169050919050565b600067ffffffffffffffff82169050919050565b600061122a826111b0565b9050919050565b82818337600083830152505050565b60005b8381101561125e578082015181840152602081019050611243565b8381111561126d576000848401525b50505050565b61127c826113de565b810181811067ffffffffffffffff8211171561129b5761129a611391565b5b80604052505050565b60006112af826111f1565b91506112ba836111f1565b9250826112ca576112c9611304565b5b828206905092915050565b7f4e487b7100000000000000000000000000000000000000000000000000000000600052601160045260246000fd5b7f4e487b7100000000000000000000000000000000000000000000000000000000600052601260045260246000fd5b7f4e487b7100000000000000000000000000000000000000000000000000000000600052602160045260246000fd5b7f4e487b7100000000000000000000000000000000000000000000000000000000600052603260045260246000fd5b7f4e487b7100000000000000000000000000000000000000000000000000000000600052604160045260246000fd5b600080fd5b600080fd5b600080fd5b600080fd5b600080fd5b600080fd5b6000601f19601f8301169050919050565b50565b6002811061140357611402611333565b5b50565b61140f816111f1565b811461141a57600080fd5b5056fea2646970667358221220e1d507ce578a2ad2ece51de4b80fcec80e457236c439422d59c4d35fd583c77964736f6c63430008070033",
  "devdoc": {
    "author": "Artur Khaialiev",
    "details": "This implements Chainlink VRF v2 and Chainlink keepers",
    "kind": "dev",
    "methods": {
      "checkUpkeep(bytes)": {
        "details": "This is the function that the Chainlink Keeper nodes call they look for the upkeepNeeded to return true Thefollowing should be true in order to return true: 1. Out time interval should have passed 2. The lottery should have at least 1 player and have some ETH 3. Our subscription is funded with LINK 4. The lottery should be in an \"open\" state"
      }
    },
    "title": "A sample Raffle Contract",
    "version": 1
  },
  "userdoc": {
    "kind": "user",
    "methods": {},
    "notice": "THis contract is for creating an untamperable decentralized smart contract",
    "version": 1
  },
  "storageLayout": {
    "storage": [
      {
        "astId": 208,
        "contract": "contracts/Raffle.sol:Raffle",
        "label": "s_players",
        "offset": 0,
        "slot": "0",
        "type": "t_array(t_address_payable)dyn_storage"
      },
      {
        "astId": 225,
        "contract": "contracts/Raffle.sol:Raffle",
        "label": "s_lastTimeStamp",
        "offset": 0,
        "slot": "1",
        "type": "t_uint256"
      },
      {
        "astId": 229,
        "contract": "contracts/Raffle.sol:Raffle",
        "label": "s_recentWinner",
        "offset": 0,
        "slot": "2",
        "type": "t_address"
      },
      {
        "astId": 232,
        "contract": "contracts/Raffle.sol:Raffle",
        "label": "s_raffleState",
        "offset": 20,
        "slot": "2",
        "type": "t_enum(RaffleState)203"
      }
    ],
    "types": {
      "t_address": {
        "encoding": "inplace",
        "label": "address",
        "numberOfBytes": "20"
      },
      "t_address_payable": {
        "encoding": "inplace",
        "label": "address payable",
        "numberOfBytes": "20"
      },
      "t_array(t_address_payable)dyn_storage": {
        "base": "t_address_payable",
        "encoding": "dynamic_array",
        "label": "address payable[]",
        "numberOfBytes": "32"
      },
      "t_enum(RaffleState)203": {
        "encoding": "inplace",
        "label": "enum Raffle.RaffleState",
        "numberOfBytes": "1"
      },
      "t_uint256": {
        "encoding": "inplace",
        "label": "uint256",
        "numberOfBytes": "32"
      }
    }
  }
}